{
  "contractName": "TestContract",
  "abi": [
    {
      "inputs": [
        {
          "internalType": "address",
          "name": "_proprietaire",
          "type": "address"
        },
        {
          "internalType": "string",
          "name": "_name",
          "type": "string"
        },
        {
          "internalType": "uint256",
          "name": "_price",
          "type": "uint256"
        },
        {
          "internalType": "enum TestContract.typeBien",
          "name": "_typeBien",
          "type": "uint8"
        }
      ],
      "name": "addBien",
      "outputs": [],
      "stateMutability": "nonpayable",
      "type": "function"
    },
    {
      "inputs": [
        {
          "internalType": "address",
          "name": "_proprietaire",
          "type": "address"
        }
      ],
      "name": "getBiens",
      "outputs": [
        {
          "components": [
            {
              "internalType": "uint256",
              "name": "id",
              "type": "uint256"
            },
            {
              "internalType": "string",
              "name": "name",
              "type": "string"
            },
            {
              "internalType": "uint256",
              "name": "price",
              "type": "uint256"
            },
            {
              "internalType": "enum TestContract.typeBien",
              "name": "_typeBien",
              "type": "uint8"
            }
          ],
          "internalType": "struct TestContract.bien[]",
          "name": "",
          "type": "tuple[]"
        }
      ],
      "stateMutability": "view",
      "type": "function"
    },
    {
      "inputs": [
        {
          "internalType": "address",
          "name": "_proprietaire",
          "type": "address"
        }
      ],
      "name": "getNombreBiens",
      "outputs": [
        {
          "internalType": "uint256",
          "name": "",
          "type": "uint256"
        }
      ],
      "stateMutability": "view",
      "type": "function"
    },
    {
      "inputs": [],
      "name": "getMesBiens",
      "outputs": [
        {
          "components": [
            {
              "internalType": "uint256",
              "name": "id",
              "type": "uint256"
            },
            {
              "internalType": "string",
              "name": "name",
              "type": "string"
            },
            {
              "internalType": "uint256",
              "name": "price",
              "type": "uint256"
            },
            {
              "internalType": "enum TestContract.typeBien",
              "name": "_typeBien",
              "type": "uint8"
            }
          ],
          "internalType": "struct TestContract.bien[]",
          "name": "",
          "type": "tuple[]"
        }
      ],
      "stateMutability": "view",
      "type": "function"
    }
  ],
  "bytecode": "0x608060405234801561001057600080fd5b50336000806101000a81548173ffffffffffffffffffffffffffffffffffffffff021916908373ffffffffffffffffffffffffffffffffffffffff160217905550611249806100606000396000f3fe608060405234801561001057600080fd5b506004361061004c5760003560e01c8063302863ec146100515780634f3b698c1461006d578063a8bf579d1461008b578063fdee50ad146100bb575b600080fd5b61006b600480360381019061006691906109f7565b6100eb565b005b610075610380565b6040516100829190610ca4565b60405180910390f35b6100a560048036038101906100a09190610cc6565b6104fd565b6040516100b29190610ca4565b60405180910390f35b6100d560048036038101906100d09190610cc6565b61070a565b6040516100e29190610d02565b60405180910390f35b3373ffffffffffffffffffffffffffffffffffffffff1660008054906101000a900473ffffffffffffffffffffffffffffffffffffffff1673ffffffffffffffffffffffffffffffffffffffff1614610179576040517f08c379a000000000000000000000000000000000000000000000000000000000815260040161017090610d7a565b60405180910390fd5b6103e882116101bd576040517f08c379a00000000000000000000000000000000000000000000000000000000081526004016101b490610e0c565b60405180910390fd5b60008160028111156101d2576101d1610b34565b5b1015610213576040517f08c379a000000000000000000000000000000000000000000000000000000000815260040161020a90610e9e565b60405180910390fd5b600281600281111561022857610227610b34565b5b1115610269576040517f08c379a000000000000000000000000000000000000000000000000000000000815260040161026090610e9e565b60405180910390fd5b600260008573ffffffffffffffffffffffffffffffffffffffff1673ffffffffffffffffffffffffffffffffffffffff168152602001908152602001600020604051806080016040528060015481526020018581526020018481526020018360028111156102da576102d9610b34565b5b815250908060018154018082558091505060019003906000526020600020906004020160009091909190915060008201518160000155602082015181600101908161032591906110ca565b506040820151816002015560608201518160030160006101000a81548160ff0219169083600281111561035b5761035a610b34565b5b0217905550505060016000815480929190610375906111cb565b919050555050505050565b6060600260003373ffffffffffffffffffffffffffffffffffffffff1673ffffffffffffffffffffffffffffffffffffffff168152602001908152602001600020805480602002602001604051908101604052809291908181526020016000905b828210156104f457838290600052602060002090600402016040518060800160405290816000820154815260200160018201805461041e90610eed565b80601f016020809104026020016040519081016040528092919081815260200182805461044a90610eed565b80156104975780601f1061046c57610100808354040283529160200191610497565b820191906000526020600020905b81548152906001019060200180831161047a57829003601f168201915b50505050508152602001600282015481526020016003820160009054906101000a900460ff1660028111156104cf576104ce610b34565b5b60028111156104e1576104e0610b34565b5b81525050815260200190600101906103e1565b50505050905090565b60603373ffffffffffffffffffffffffffffffffffffffff1660008054906101000a900473ffffffffffffffffffffffffffffffffffffffff1673ffffffffffffffffffffffffffffffffffffffff161461058d576040517f08c379a000000000000000000000000000000000000000000000000000000000815260040161058490610d7a565b60405180910390fd5b600260008373ffffffffffffffffffffffffffffffffffffffff1673ffffffffffffffffffffffffffffffffffffffff168152602001908152602001600020805480602002602001604051908101604052809291908181526020016000905b828210156106ff57838290600052602060002090600402016040518060800160405290816000820154815260200160018201805461062990610eed565b80601f016020809104026020016040519081016040528092919081815260200182805461065590610eed565b80156106a25780601f10610677576101008083540402835291602001916106a2565b820191906000526020600020905b81548152906001019060200180831161068557829003601f168201915b50505050508152602001600282015481526020016003820160009054906101000a900460ff1660028111156106da576106d9610b34565b5b60028111156106ec576106eb610b34565b5b81525050815260200190600101906105ec565b505050509050919050565b60003373ffffffffffffffffffffffffffffffffffffffff1660008054906101000a900473ffffffffffffffffffffffffffffffffffffffff1673ffffffffffffffffffffffffffffffffffffffff161461079a576040517f08c379a000000000000000000000000000000000000000000000000000000000815260040161079190610d7a565b60405180910390fd5b600260008373ffffffffffffffffffffffffffffffffffffffff1673ffffffffffffffffffffffffffffffffffffffff168152602001908152602001600020805490509050919050565b6000604051905090565b600080fd5b600080fd5b600073ffffffffffffffffffffffffffffffffffffffff82169050919050565b6000610823826107f8565b9050919050565b61083381610818565b811461083e57600080fd5b50565b6000813590506108508161082a565b92915050565b600080fd5b600080fd5b6000601f19601f8301169050919050565b7f4e487b7100000000000000000000000000000000000000000000000000000000600052604160045260246000fd5b6108a982610860565b810181811067ffffffffffffffff821117156108c8576108c7610871565b5b80604052505050565b60006108db6107e4565b90506108e782826108a0565b919050565b600067ffffffffffffffff82111561090757610906610871565b5b61091082610860565b9050602081019050919050565b82818337600083830152505050565b600061093f61093a846108ec565b6108d1565b90508281526020810184848401111561095b5761095a61085b565b5b61096684828561091d565b509392505050565b600082601f83011261098357610982610856565b5b813561099384826020860161092c565b91505092915050565b6000819050919050565b6109af8161099c565b81146109ba57600080fd5b50565b6000813590506109cc816109a6565b92915050565b600381106109df57600080fd5b50565b6000813590506109f1816109d2565b92915050565b60008060008060808587031215610a1157610a106107ee565b5b6000610a1f87828801610841565b945050602085013567ffffffffffffffff811115610a4057610a3f6107f3565b5b610a4c8782880161096e565b9350506040610a5d878288016109bd565b9250506060610a6e878288016109e2565b91505092959194509250565b600081519050919050565b600082825260208201905092915050565b6000819050602082019050919050565b610aaf8161099c565b82525050565b600081519050919050565b600082825260208201905092915050565b60005b83811015610aef578082015181840152602081019050610ad4565b60008484015250505050565b6000610b0682610ab5565b610b108185610ac0565b9350610b20818560208601610ad1565b610b2981610860565b840191505092915050565b7f4e487b7100000000000000000000000000000000000000000000000000000000600052602160045260246000fd5b60038110610b7457610b73610b34565b5b50565b6000819050610b8582610b63565b919050565b6000610b9582610b77565b9050919050565b610ba581610b8a565b82525050565b6000608083016000830151610bc36000860182610aa6565b5060208301518482036020860152610bdb8282610afb565b9150506040830151610bf06040860182610aa6565b506060830151610c036060860182610b9c565b508091505092915050565b6000610c1a8383610bab565b905092915050565b6000602082019050919050565b6000610c3a82610a7a565b610c448185610a85565b935083602082028501610c5685610a96565b8060005b85811015610c925784840389528151610c738582610c0e565b9450610c7e83610c22565b925060208a01995050600181019050610c5a565b50829750879550505050505092915050565b60006020820190508181036000830152610cbe8184610c2f565b905092915050565b600060208284031215610cdc57610cdb6107ee565b5b6000610cea84828501610841565b91505092915050565b610cfc8161099c565b82525050565b6000602082019050610d176000830184610cf3565b92915050565b600082825260208201905092915050565b7f6e6f7420746865206f776e657200000000000000000000000000000000000000600082015250565b6000610d64600d83610d1d565b9150610d6f82610d2e565b602082019050919050565b60006020820190508181036000830152610d9381610d57565b9050919050565b7f6c65206269656e20646f697420636f7574657220706c7573206465203130303060008201527f2077656900000000000000000000000000000000000000000000000000000000602082015250565b6000610df6602483610d1d565b9150610e0182610d9a565b604082019050919050565b60006020820190508181036000830152610e2581610de9565b9050919050565b7f6c652074797065206465206269656e20646f6974206574726520636f6d70726960008201527f7320656e74726520302065742032000000000000000000000000000000000000602082015250565b6000610e88602e83610d1d565b9150610e9382610e2c565b604082019050919050565b60006020820190508181036000830152610eb781610e7b565b9050919050565b7f4e487b7100000000000000000000000000000000000000000000000000000000600052602260045260246000fd5b60006002820490506001821680610f0557607f821691505b602082108103610f1857610f17610ebe565b5b50919050565b60008190508160005260206000209050919050565b60006020601f8301049050919050565b600082821b905092915050565b600060088302610f807fffffffffffffffffffffffffffffffffffffffffffffffffffffffffffffffff82610f43565b610f8a8683610f43565b95508019841693508086168417925050509392505050565b6000819050919050565b6000610fc7610fc2610fbd8461099c565b610fa2565b61099c565b9050919050565b6000819050919050565b610fe183610fac565b610ff5610fed82610fce565b848454610f50565b825550505050565b600090565b61100a610ffd565b611015818484610fd8565b505050565b5b818110156110395761102e600082611002565b60018101905061101b565b5050565b601f82111561107e5761104f81610f1e565b61105884610f33565b81016020851015611067578190505b61107b61107385610f33565b83018261101a565b50505b505050565b600082821c905092915050565b60006110a160001984600802611083565b1980831691505092915050565b60006110ba8383611090565b9150826002028217905092915050565b6110d382610ab5565b67ffffffffffffffff8111156110ec576110eb610871565b5b6110f68254610eed565b61110182828561103d565b600060209050601f8311600181146111345760008415611122578287015190505b61112c85826110ae565b865550611194565b601f19841661114286610f1e565b60005b8281101561116a57848901518255600182019150602085019450602081019050611145565b868310156111875784890151611183601f891682611090565b8355505b6001600288020188555050505b505050505050565b7f4e487b7100000000000000000000000000000000000000000000000000000000600052601160045260246000fd5b60006111d68261099c565b91507fffffffffffffffffffffffffffffffffffffffffffffffffffffffffffffffff82036112085761120761119c565b5b60018201905091905056fea2646970667358221220296fcdaab6e84a9003a607075bd676ee9491e9005b4536c7a530ceb37630720a64736f6c63430008110033",
  "immutableReferences": {},
  "source": "pragma solidity ^0.8.17;\r\n\r\nimport './Owner.sol';\r\ncontract TestContract is Owner {\r\n\r\nenum typeBien {terrain,appartement,maison}\r\n\r\nstruct bien {  // apparteement bien ou maison ou terrain\r\n    uint id; // id du bien\r\n    string name; //nom du bien\r\n    uint price;// prix\r\n    typeBien _typeBien; // dfinit le tyoe de bien(terrain,appartemeent,maison)\r\n}\r\n\r\nuint compteur;\r\n\r\nmapping(address => bien[]) Possessions; // un proprietaire est represent par une adresse d'un compte eth peut osseder 0 ou plusieurs bien\r\n\r\n\r\n// fonctionnalit pour ajouter un bien ,on aura besoin de l'adresse du proprietaire,nom,prix,et le type\r\n// uniquement le proprietaire du contrat peut ajouter un bien dans le contrat intelligent en le reliant  un certains proprietaire\r\n// en indiquant le nom,prix,type de bien\r\nfunction addBien(address _proprietaire,string memory _name, uint _price, typeBien _typeBien) public isOwner { \r\n    \r\n    require(_price > 1000,\"le bien doit couter plus de 1000 wei\");\r\n    require(uint(_typeBien) >= 0, \"le type de bien doit etre compris entre 0 et 2\");\r\n    require(uint(_typeBien) <=2, \"le type de bien doit etre compris entre 0 et 2\");\r\n    Possessions[_proprietaire].push(bien(compteur,_name,_price,_typeBien)); // ajouter la structure bien \r\n    // compteur permet de gerer les id du bien,\r\n    compteur++;\r\n\r\n}\r\n// permet de recuperer tous les bien d'un certains proprietaire du contrat intelligent,\r\nfunction getBiens(address _proprietaire) public view isOwner returns(bien[] memory) {\r\n    return Possessions[_proprietaire];\r\n}\r\n// recuperer le nombre de bien d'un proprietaire\r\nfunction getNombreBiens(address _proprietaire) public view isOwner returns(uint) {\r\n    return Possessions[_proprietaire].length;\r\n}\r\n\r\n//recuprer les bien de la personne qui appelle la fonction\r\nfunction getMesBiens() public view returns(bien[] memory ){\r\n    return Possessions[msg.sender];\r\n}\r\n}",
  "sourcePath": "c:\\xampp\\htdocs\\THYP_22-23_SmartContrat\\contracts\\TestContract.sol",
  "compiler": {
    "name": "solc",
    "version": "0.8.17+commit.8df45f5f.Emscripten.clang"
  },
  "schemaVersion": "3.4.10",
  "updatedAt": "2022-11-06T22:22:26.746Z",
  "devdoc": {
    "kind": "dev",
    "methods": {},
    "version": 1
  },
  "userdoc": {
    "kind": "user",
    "methods": {},
    "version": 1
  }
}